:020000040000FA
:0600000002011D020FC603
:03002B000214AF0D
:0300330002149123
:03003B000214FAB2
:0300430002143F65
:0300530002103C5C
:03006B000214CBB1
:10008300020EB7E5C754F84401F5C7790122000011
:100093000080FB120086B90003020107E4791B7894
:1000A30002B800028004F709D8FCE4791D7802B88D
:1000B30000028004F709D8FCE4900281786B79048C
:1000C3008002F0A3D8FCD9FA781A90014D7A01BACC
:1000D30000028007E493A3F608DAF99005EBAA82FD
:1000E300AB8390014E787F79018015E493A3AC82B2
:1000F300AD838A828B83F0A3AA82AB838C828D83A8
:10010300D8E9D9E7758281758393740112012F753C
:100113008291758300740012012F75D00075813FA1
:10012300751881751902759F00020096C09FF59F8F
:10013300E473D09F22D083D082C09FE493C0E07445
:100143000193C0E0740293F59F2201DE01EA01FFEF
:100153000000B4000028002800283075A000A0008B
:10016300A000A00000080008E001F000100010004B
:10017300100010001000100050005000500010003C
:100183001000D0070000000000000F000100050070
:10019300307507001000010081FF0000FF4C034C85
:1001A300034C034C034C034C034C034C034C034CD4
:1001B300034C034C034C03FFFF307836304330428B
:1001C30046323944413031FF0012013868150012BC
:1001D3000138431600120138711600120138F11666
:1001E300001201382F170012013897170012013837
:1001F300281800120138F31800120138021C0012EB
:1002030001386E1D00120138911D00120138306A49
:1002130000120138586A00120138866A0012013848
:10022300C36A001201380C6B001201385E6B0012B6
:1002330001388C6B00120138336C00120138487E90
:1002430000120138607E00120138026F001201387B
:100253000D6F001201381F6F00120138FD6F00127D
:100263000138027000120138E97000120138F5728A
:10027300001201382573001201385D730012013832
:100283009773001201380274001201384B74001284
:1002930001387574001201389A74001201388344CE
:1002A30000120138B6440012013894450012013897
:1002B300B9450012013836470012013800390012DF
:1002C3000138983A00120138383B00120138B83B24
:1002D30000120138313C00120138203D0012013870
:1002E300D532001201381E33001201384B3300128D
:1002F30001388033001201388D33001201389933ED
:1003030000120138AB33001201386B34001201388C
:10031300C93400120138FE34001201389A36001233
:100323000138FD360012013859370012013885387B
:1003330000120138D3380012013834790012013821
:100343004079001201381E7A00120138F37F00123F
:100353000138AE4900120138594A00120138094BDD
:10036300001201382E4B00120138254D00120138BE
:10037300784E001201384E260012013873260012FF
:1003830001388A28001201380B2A00120138952BF4
:1003930000120138062C00120138432C00120138D8
:1003A300662C001201387C2C00120138992C0012A3
:1003B30001380664001201387C640012013892642B
:1003C30000120138CF6400120138076500120138AA
:1003D300846500120138BF65001201383A660012C5
:1003E30001387666001201387F66001201388B6689
:1003F30000120138B26600120138C86600120138D3
:10040300F16600120138546700120138A22C001261
:100413000138B52C00120138CF2C00120138F82C0A
:10042300001201383B2D001201387A2D00120138D9
:10043300DF2D00120138F42D001201380B2E0012AB
:100443000138192E00120138282E001201383D2ED2
:1004530000120138522E001201385D2E00120138AD
:10046300702E00120138932E001201383C2F001217
:100473000138512F001201386B2F00120138862FDB
:1004830000120138A32F00120138AE2F00120138D9
:100493006A30001201385631001201387B310012E4
:1004A3000138853100120138993100120138B83111
:1004B30000120138193200120138253200120138B6
:1004C3005832001201381693011201384293011277
:1004D30001386F9301120138C91E00120138D31E6F
:1004E300001201381D1F00120138731F001201385A
:1004F300941F001201384322001201389722001280
:100503000138C02200120138CA22001201383823F0
:1005130000120138C82300120138232400120138C5
:10052300512400120138D924001201381825001271
:1005330001384D25001201385F25001201387E2550
:1005430000120138872500120138657C001201383A
:10055300FC7000120138327100120138667100120A
:100563000138B372001201380D920112013823923F
:10057300011201382D9201120138779201120138CC
:10058300D993011201382E5300120138415300123E
:1005930001380254001201384154001201385E54EC
:1005A30000120138975400120138E4540012013844
:1005B3001655001201381F57001201388B570012CD
:1005C3000138CF7700120138F9770012013891789A
:1005D30000120138A97800120138EB7800120138B3
:1005E3008467001201389267001201380468001210
:1005F3000138856900120138A369001201382D6A98
:1006030000120138AA9401120138F97E0012013850
:100613000A7F00120138AA7F00120138E97F001215
:100623000138ED94011201385C7D001201386C7DB4
:1006330000120138877D001201383B7E0012013819
:10064300637B00120138E87B001201384C7C0012F6
:100653000138C27400120138EB740012013851756D
:1006630000120138717500120138C2750012013889
:100673001D76001201385776001201385A7600129F
:100683000138EB5F001201381060001201382D6051
:10069300001201384A60001201386F6000120138FD
:1006A300906000120138BC600012013879610012B9
:1006B3000138F761001201381E62001201385D62D1
:1006C30000120138826300120138CF5B0012013837
:1006D300E65B00120138605C00120138445D0012D1
:1006E30001381B5F00120138805F00120138D75FA9
:1006F30000120138F87F00120138C86C001201386B
:10070300586E00120138B96E00120138FF6E0012E4
:100713000138985700120138335800120138D15864
:1007230000120138C959001201387B5A00120138EE
:10073300A35A00120138B15A001201381C5B00128F
:1007430001389A5B00120138AE5B00120138B85BC6
:1007530000120138CC5B00120138647600120138B4
:10076300A17600120138D0760012013811770012F9
:1007730001382077001201382F77001201385D7A93
:1007830000120138877A001201381D3F0012013828
:10079300E93F001201383140001201388F40001246
:1007A3000138E34000120138414100120138D741BA
:1007B30000120138614300120138FF43001201386F
:1007C300664400120138AF4E00120138194F00126F
:1007D3000138864F00120138974F001201384A50F2
:1007E30000120138AC52001201385594011201383D
:1007F3001F9401120138829401120138CF9401121F
:100803000138A39201E066701008A3E066700A083D
:10081300A3E066700408A3E06622C3E7960809E72D
:10082300960809E7960809E79622C3E09608A3E02D
:100833009608A3E09608A3E09622C008C3E096F5C5
:100843000808A3E096420808A3E096420808A3E03C
:100853009645087001D3D00822080808EAC0E0EBE7
:10086300C0E086F0E7A4FA180986F0E7A42AFA188C
:100873000986F0E7A42AFA180986F0E7A42AFA19E8
:1008830086F0E7A4FBE5F02AFA190886F0E7A42B23
:10089300FBE5F03AFA190886F0E7A42BFBE5F03AFA
:1008A300FA18180986F0E7A4C5F02BFBE43AFA1905
:1008B30008E7C5F0C6A426F6E5F03BFBE43AFA18D0
:1008C30086F0E7A4F6E5F00826F6E43B08F6E43AFA
:1008D30008F6D0E0FBD0E0FA22E4CFC0E0E4CEC0DB
:1008E300E0E4CDC0E0E4CCC0E075F020C3E633F62D
:1008F30008E633F608E633F608E633F6181818EC7C
:1009030033FCED33FDEE33FEEF33FFC3EC9709ED1C
:100913009709EE9709EF97191919400FFFEC97FC08
:1009230009ED97FD09EE97FE191906D5F0BEECF710
:1009330009EDF709EEF709EFF7191919D0E0FCD023
:10094300E0FDD0E0FED0E0FF226016080808C6C331
:1009530013C618C613C618C613C618C613C6D5E0E1
:10096300EA227009080808226016181818C6C3334B
:10097300C608C633C608C633C608C633C6D5E0EABA
:1009830022E627F60809E637F60809E637F60809E6
:10099300E637F622E026F608A3E036F608A3E036AB
:1009A300F608A3E036F622E026F008A3E036F008C6
:1009B300A3E036F008A3E036F022C3E697F6080971
:1009C300E697F60809E697F60809E697F622C3E0E4
:1009D30096F008A3E096F008A3E096F008A3E0964B
:1009E300F022E056F608A3E056F608A3E056F60810
:1009F300A3E056F622E0F608A3E0F608A3E0F60823
:100A0300A3E0F622E6F008A3E6F008A3E6F008A3C5
:100A1300E6F022E0FAA3E0FBA3E0FCA3E0FD22EA78
:100A2300F0A3EBF0A3ECF0A3EDF022CAC0E0E6F0F4
:100A3300A308DAFAD0E0FA22CAC0E0E0A3C582CC68
:100A4300C582C583CDC583F0A3C582CCC582C583CA
:100A5300CDC583DAE6D0E0CA22B90010BB0008E8AE
:100A63008AF084F8AAF022E4FBC8FA22EB70227B16
:100A730010C833C8C933C9335007C39AC3DBF280E4
:100A8300069A50012ADBEAC833F4C8C933F4C9FA19
:100A93002275F008E4C833C8C933C933C99AC99B5E
:100AA3005004C92AC93BD5F0ECFBC833F4C8E4C9E8
:100AB300FA22600D08C6A2E713C618C613C6D5E00E
:100AC300F322600C08C6C313C618C613C6D5E0F4D8
:100AD30022700422600D18C6C333C608C633C6D5B8
:100AE300E0F41822251810AF08F5184002151980F4
:100AF30008F51840021519D2AF22C0D0251810AF3F
:100B030008F518500205198008F51850020519D286
:100B1300AFD0D0222518F58210AF08F51840021582
:100B2300198008F51840021519D2AF85198322C51B
:100B3300822518C582C583351910AF07F51985823B
:100B4300188007F519858218D2AFC583222518F5B9
:100B530082E43519F58322E4732518C582C0E0E5E4
:100B63001934FFC583C0E0E518C3958224F810AF9C
:100B7300088583198582188008858319858218D290
:100B8300AFCEF0A3E520F0A37808E608F0A3DEFAE1
:100B9300EFF0A3E58124FAF8E608F0A3E608F0A352
:100BA300E608F0A30808E608F0A3E608F0A3158119
:100BB3001581D0E0FED0E0F8158115811581E8C0DC
:100BC300E0EEC0E0222518C582C0E0E51934FFC578
:100BD30083C0E0E518C3958224F910AF0885831913
:100BE3008582188008858319858218D2AFCEF0A339
:100BF300E520F0A37808E608F0A3DEFAEFF0A3E51A
:100C03008124FBF8E608F0A3E608F0A30808E60849
:100C1300F0A3E608F0A315811581D0E0FED0E0F83B
:100C230015811581E8C0E0EEC0E02285198385189F
:100C330082E0A3FEE0A3F5207808E0A3F608DFFA3C
:100C4300E0A3FFE0A3C0E0E0A3C0E0E0A3C0E0E0D6
:100C5300A3C0E0E0A3C0E010AF0885821885831924
:100C63008008858218858319D2AFD083D082020190
:100C730035851983851882E0A3FEE0A3F520780863
:100C8300E0A3F608DFFAE0A3FFE0A3C0E0E0A3C01F
:100C9300E0E0A3C0E0E0A3C0E010AF0885821885C0
:100CA30083198008858218858319D2AFD083D082B7
:100CB30022C0D02518C582C0E0E51934FFC583C022
:100CC300E0E518C3958224F310AF08858319858264
:100CD300188008858319858218D2AFC8F0A3E9F07C
:100CE300A3EAF0A3EBF0A37908E709F0A3D8FAECA1
:100CF300F0A3EDF0A3EEF0A3EFF0A3D0E0F0A3D0C8
:100D0300E0F0A3D0E0F0A3E520F0A3E5F0F0A32208
:100D1300851983851882E0C0E0A3E0F9A3E0FAA374
:100D2300E0FBA37808E0F608A3DFFAE0FCA3E0FD0C
:100D3300A3E0FEA3E0FFA3E0C0E0A3E0C0E0A3E0E4
:100D4300F5D0A3E0F520A3E0A3F5F010AF08858369
:100D5300198582188008858319858218D2AFD082BD
:100D6300D083D0E0F8D0E0327404800674028002AD
:100D73007401C0E0F404120B17D0E0120A2E22749F
:100D830004800474028000CCC0E0EDC0E0E518C329
:100D93009CCCAD1950011D10AF068C188D1980061F
:100DA3008C188D19D2AF120A3BD0E0FDD0E0FC22A3
:100DB300D083D082E9C0E0E493A3C386F0C5F09565
:100DC300F0F908E493A386F0C5F095F0700BE49373
:100DD300A3C3994005E9048002A3E475F002A425A6
:100DE30082F582E5F03583F583D0E0F9E493A3C07F
:100DF300E0E493C0E022D083D082ECC0E0EDC0E019
:100E0300E493A3FCE493A3FDED4C600D120E45ECBB
:100E130024FFFCED34FFFD80EFE493A3FCE493A3F4
:100E2300FDED4C600D120E84EC24FFFCED34FFFD50
:100E330080EFD0E0FDD0E0FCE493A3C0E0E493C0F6
:100E4300E022C0E0C3E49396087401939618400F20
:100E5300E49366700808740193661870007019A310
:100E6300A3C3E49396087401939618A3A3400DD0EB
:100E7300E0D0E0D0E0020E35A3A3A3A3A3A3D0E068
:100E830022C0E0C0F088F0E4936670080874019310
:100E930066187000A8F0A3A3700BD0F0D0E0D0E0E8
:0C0EA300D0E0020E35A3A3D0F0D0E02276
:100EB000851B87851CC622C0E074EF120CB4759B9D
:100EC00000906182E0A2E64003020F78E591A2E67D
:100ED0004003020F787591BF9002C2E0640570086C
:100EE0001203E21203EE80031203E8751B001204E2
:100EF00054E99002C3F079001204361203047A0117
:100F00007B009002C1E0F9120526907803E064426C
:100F10006003020FC19002FEE014F06003020FC1F3
:100F2000C2AF120F2500781ED0E0F618D0E0F6E52B
:100F30009F5407F970059091F280039091EE780824
:100F40001209F8E9C4C0E0781DE65508F50808E67E
:100F50005509F509740B7808120AC5D0E02508F880
:100F6000906270E0A2E740F8E8C333906272F090BC
:100F70006270E0D2E0F08049E0A2E55024E591A261
:100F8000E5501E7591DF9002C2E0640D701390026F
:100F9000D8E004F064287002E4F07A00E0F912046A
:100FA000BA906181E0A2E35009E5E9A2E35003753C
:100FB000E9F7A3E0A2E75009E591A2E75003759194
:100FC0007F7F04020D13C0E0C0D0C082C083906157
:100FD00083E0A2E05009E5BFA2E0500375BFFEE048
:100FE000A2E15009E5BFA2E1500375BFFDE0A2E216
:100FF0005009E5BFA2E2500375BFFBE0A2E3500930
:10100000E5BFA2E3500375BFF7E0A2E45009E5BFD6
:10101000A2E4500375BFEFE0A2E55009E5BFA2E5E9
:10102000500375BFDFE0A2E65009E5BFA2E650031A
:1010300075BFBFD083D082D0D0D0E032C0E074F290
:10104000120CB4E5A7A2E4500FE5A1A2E4500953A5
:10105000A7EF75A1EF121090E5A7A2E5500CE5A14E
:10106000A2E5500653A7DF75A1DFE5A7A2E150096D
:10107000E5A1A2E1500375A1FDE5A7A2E2500CE5B0
:10108000A1A2E2500653A7FB75A1FB7F01020D133D
:1010900074F8120BC8751B019002C2E06406700759
:1010A0007A007B001203CAA2AFE433FED2AF9002F3
:1010B000C8E0640170187A207B009002C1E0F91248
:1010C00005AA7A207B009002C1E0F912052C9061FC
:1010D00082E0D2E6F09002FDE0602185C61C801619
:1010E0009002C7E064017008E5C654F84405F5C6EF
:1010F00053BEFC120EB07401651B60E4EEA2E092D8
:10110000AF7F01020C7474E9120BC874FA120AE77B
:10111000EAFEEBFF8C088D099002C2E024F7C3942D
:1011200005500690918A02122D12039A8A0A8B0B9F
:10113000EA450B700302122A1203FA8A0C8B0D1275
:1011400003FAEA650C7003EB650D60ECEEFCEFFD55
:10115000851882851983AA82AB83120400850A82CE
:10116000850B83A3A3780C1209F89091FE780C12DA
:1011700009E585188285198378141209F89091FE83
:1011800078141209E5780C791412081D501F780C98
:1011900079141209BD9091AE780C12083D40478534
:1011A0000C10850D11850E12850F138041851410CA
:1011B0008515118516128517137810790C1209BD43
:1011C0009091AE781012083D501C751000751100FA
:1011D000751200751301781079141209BD78107911
:1011E0000C120984800890918A78101209F8740909
:1011F00078101209659091A6780C1209F878107988
:101200000C1208DC9002C2E06408600AE064066028
:1012100005E06405701C9091AA781012083D5012E8
:1012200090919E78101209978008909186781012FC
:1012300009F88508828509837810120A0774061256
:101240000AFD7F10020C7474F7120BC8120412907E
:1012500002FBE064017010906245E4F0A3F053F4E7
:10126000F343FE0C5390F31203B8E5C6548044498F
:10127000F5C6E59E547F644970F8906185740FF05F
:101280009002F9E0F47002A3E0602C750801750982
:10129000009002F9E07808120AD4E508F4FAA3E015
:1012A000600814600A14600C800DEA52808008EA1D
:1012B00052908003EA52A079007F02020C7474F706
:1012C000120BC8E9FEEAFF74016E700C7A807B0095
:1012D0009002C1E0F9120526901560E493F46008CD
:1012E000E493F91202E6800953C680E59E547F70AC
:1012F000FA1203BE9002FBE06401700312031C901B
:1013000002F9E0F47002A3E0602A75080175090093
:101310009002F9E07808120AD4AA08A3E060081441
:10132000600A14600C800DEA42808008EA429080D6
:1013300003EA42A012039A8A088B09A808A909E8BF
:10134000496017E5E170FCE82414F582E93400F502
:1013500083E0F874FF68600288E174016F700A7AB4
:10136000019002C1E0F91205740212B974F1120B76
:10137000C88A088B098C0A8D0B740F120B50780CDD
:101380001209F89091FE78081209E59091FE780C08
:101390001209E57808790C12081D50157808790CA7
:1013A0001209BD9091AE780812083D401579018070
:1013B00013780C79081209BD9091AE780C12083D93
:1013C00040EB79007F08020C7474ED120BC88A0898
:1013D0008B098C0A8D0B7413120B50780C1209F8C0
:1013E0009091FE78081209E59091FE780C1209E5BB
:1013F000780C790812081D40117808790C1209BD83
:10140000AA08AB09AC0AAD0B80227510007511005B
:101410007512007513017810790C1209BD781079D6
:1014200008120984AA10AB11AC12AD137F0C020C88
:1014300074C082C083E9906000F0D083D08222C063
:10144000E074F2120CB4A2AFE433FED2AFC2C0E536
:10145000D1A2E4500653D1EF120754751A00EEA240
:10146000E092AF7F01020D13C0E074F2120CB4A23F
:10147000AFE433FED2AFE589A2E1500312067075E6
:101480008900C2C5751A00EEA2E092AF7F01020D7D
:1014900013C0E074F2120CB4A2AFE433FED2AFE595
:1014A0008BA2E05003120670758B00C2E880D5C095
:1014B000E0C0D0E8C0E0E5A8D2AFC2C7751A00A26C
:1014C000E792AFD0E0F8D0D0D0E032C0E0C0D0E8B2
:1014D000C0E0C082C083E5A8F8D2AF758900C2C55C
:1014E0009003C47401F0751A00E8A2E792AFD083AC
:1014F000D082D0E0F8D0D0D0E032C0E0C0D0E8C098
:10150000E0E9C0E0C008C009C082C083A2AFE433F4
:10151000F9D2AF900548E0F8A3E0687008539AFB51
:10152000A374018026C2E9900548E0F508740125FE
:1015300008F074C82508F58274043400F583E0F5DA
:10154000C1900548E0C394804002E4F0E9A2E09233
:0E155000AFD083D082D009D008D0E0F98094CB
:10156000FFFFFFFFFFFFFFFF74F4120B5CEAFEEBCF
:10157000FF12163860057911021631900284E0548A
:101580000A700579120216317A047B0012055C900C
:10159000029DEAF0A3EBF0121638700302162F75C5
:1015A00008047509007808120D6FEEFCEFFD90023B
:1015B0009D121EB3120AFD12025CE960097A0C1238
:1015C000178D7A0D801A8E828F83A3E064027009D2
:1015D0007A1212178D7A1380077A1012178D7A11EA
:1015E0007B001202148A0A8B0BAC0AAD0B8E828F21
:1015F00083A3A3A3E06004780180027800900285B1
:10160000E07004790080027901E8F50A780A120D89
:1016100073E9F50A780A120D73AA08AB098E828F56
:1016200083A3A3E0F912027A7402120AFD80027900
:10163000137F04020C2EE9FE90029DE0F8A3E0F96E
:10164000E8492274F7120B5C121636700479128086
:101650001B12172A6E6004790380117A017B0090B7
:10166000029FE0F91205AA793012181F7F01020CBF
:101670002E74F7120B5C89087A01900283E0F9124C
:1016800001F0900284E0540A6058E508900283F06B
:101690007AEB7B0512026890028112163B703F9034
:1016A0000283E0604775F00CA4FEAFF0FAEFFB1286
:1016B000055C900281EAF0A3EBF090028112163BE8
:1016C000601CEEFCEFFD79001204EA7B00900283BF
:1016D000E0F8EBC3985015EB1218C40B80EF7913A8
:1016E000800C900283E4F0FAFB1202687900021683
:1016F0006C74F6120B5C79018A088B097808120D5C
:10170000B30B200118170F170A1712171E600A12C1
:10171000171EF91201E48001197F02020C2E8C823F
:101720008D83A3A3A3A3A3E0F8A3121BF3E0227469
:10173000F4120B5C121636604FEE7034121BF3A3DA
:10174000E0640270047A0380027A0212178DE4F5D5
:101750000AF50B7808120D6B7A017B0090029FE06E
:10176000F912059E7404120AFD7901120202E9FEC3
:10177000EE60117A017B0090029FE0F91205AAEE5B
:10178000F91201FC7901800279000216317B001206
:1017900002148A088B092274F4120B5CEA4B700C59
:1017A0001216386077790012181F8070EA2403F54A
:1017B00008EB3400F509850882F583E0605E8A82D3
:1017C0008B83A3A3A3A3E0FEA3E0FFEE4F604D7ABB
:1017D000247B00120214EAF50B750A008030EE2417
:1017E00028F582EF3400F583E0C3950BA2D265D0D3
:1017F000334011EEFAEFFB1201F6E96007EEFAEF63
:10180000FB120208EE2429FEEF3400FF050A8508CA
:1018100082850983E0F8E50AC39840C202163112B6
:1018200001FC79001202022274F5120B5C89088A0D
:101830000990028112163B607A750A00802FE50A32
:1018400075F00CA4FEAFF01218B824081218CB6083
:10185000071218DAE4F0A3F01218B8240A1218CB11
:1018600060091218DAA3A3E4F0A3F0050AE50AC39D
:10187000950840CAE509900281600C121D4F900244
:1018800081E4F0A3F0802C12163B6027E50875F088
:101890000CA4FCADF07900900281121D561204EAEE
:1018A000750A008007E50A1218C4050AE50AC395FF
:1018B0000840F27F03020C2E900281E02EF8A3E094
:1018C0003FF9E822121D2E74FFF022F8E93400F9E6
:1018D00088828983121D56EA4B221205629002818A
:1018E000E02EF8A3E03F8882F583A3A3A3A3A3A3DC
:1018F000A3A32274E8120B5C74FF120AE7EAFEEB62
:10190000FF7508007A007B00121638700579000216
:101910001BE3EE2408F50AEF3400F50BEE2409F57D
:1019200012EF3400F5138E828F83E0640160347807
:1019300012120D6F850A82850B83E0FC7402120B74
:1019400050AA82AB8379011202447402120AFDEAA2
:101950004B60078A828B83E0F5088E828F83E06478
:10196000046031121BEDA3E0F87403686026E87090
:1019700004E508601FEA4B60947401687008740302
:101980005508701080877402687082E508A2E040F4
:101990000302190D8E828F83A385820E85830FEE3D
:1019A0002402F50CEF3400F50DAA0CFBE0F912024D
:1019B0002CE9F8850E82850F83F0850C16850D17AE
:1019C000881190028112163B606B75100080020531
:1019D00010900283E0F8E510C3985059E51075F0B7
:1019E0000CA4F508E5F0F509900281E02508FAA3BA
:1019F000E03509FB8A828B83E0F460D3A3E06511B4
:101A000070CD7514067515007814120D6FAC16ADF7
:101A100017EA24020A0AEB3400FB1204E4740212EF
:101A20000AFDE960AA900281E02508F508A3E035E7
:101A300009F50980067508007509008E828F83E01C
:101A4000FAE50845097003021AFCE508240AF50EB8
:101A5000E5093400F50FE5082408F50CE509340024
:101A6000F50D74046A600C850C82850D83E0FAA381
:101A7000E0800E850E82850F83E0F8A3E0F9E8FA96
:101A8000E9FBEA4B7003021B64850A82850B83E045
:101A9000F5148A828B83E06514702575150078141F
:101AA000120D6FAC12AD138A828B83A3AA82AB8313
:101AB0001204E47402120AFDE96401700302190DB4
:101AC0008E828F83E06404601D850C82850D8312F5
:101AD00018D47003021B64120562850C82850D8385
:101AE000E4F0A3F0807E850E82850F831218D46007
:101AF00073120562850E82850F8380E474046A7018
:101B00000302190D90028112163B602B7C008001AC
:101B10000C900283E0F8ECC398501CEC75F00CA418
:101B2000F8A9F0900281E028F8A3E039F9888289C9
:101B300083E0F470DB80067582007583008582087F
:101B4000858309E5084509700302190DEAF0850E41
:101B500082850F83121D5C120D6FAC0CAD0D121E31
:101B600092120AFD850A82850B83E02401FAE4348F
:101B700000FB12055CEA4B605C8E828F83E064049C
:101B80006014850882850983A3A3A3A3A3A3A3A3A9
:101B9000EAF0A3EB8018EAF8EBF98508828509835F
:101BA000A3A3A3A3A3A3A3A3A3A3E8F0A3E9121B46
:101BB000F98A828B83121BF9F508750900780812DF
:101BC0000D6FAC12AD138A828B83A3AA82AB8312F2
:101BD0001E9C120AFD850A82850B83E070030219A0
:101BE0000D79017401120AFD7F10020C2E90029DE6
:101BF000E0F8A3E0F583888222F0850A82850B83D2
:101C0000E02274F0120B5C890B750A001216387012
:101C100003021D2990028112163B7003021D29E563
:101C20000B701D750C00800DE50C121D2EE0F4608C
:101C300002050A050C900283E0F8E50CC39840E821
:101C4000850A0875090074037808120AD4E5082487
:101C500006FAE5093400FB121D43EE4F700D7A06BB
:101C60007B00121D43750A00750B13EE4F700302C3
:101C70001D128E828F8374D0F0A3E50B121EA27406
:101C800001121EA2A3E50AF0EE2404F582EF34004F
:101C9000F583E50A6075EE2406F508EF3400F509D2
:101CA000E508F0A3E509F0750C00900283E0F8E583
:101CB0000CC398505AE50A6056E50C75F00CA4F870
:101CC000A9F0900281E028F8A3E039F9E8FAE9FBED
:101CD0008A828B83E0F4602FE0850882850983F097
:101CE0008A828B83A3121D5C120D6FEA2402FCEB27
:101CF0003400FD121E92120AFDE5082408F508E5DD
:101D0000093400F509150A050C809FE4F0A3F012D0
:101D10001EBC7A00900283E0F91201F090029D123D
:101D20001D4F90029DE4F0A3F07F08020C2E75F089
:101D30000CA4F8A9F0900281E028FAA3E0398A8285
:101D4000F583221204F68A088B09AE08AF09221225
:101D50001D5612056222E0FAA3E0FB22E08508820C
:101D6000850983A3F0750E06750F00780E2274F6B0
:101D7000120B5CE9FE7A237B001202148B09EA4500
:101D80000960047A0180027A00EEF91202800217DB
:101D90001974F2120B5C8A088B0912163870030250
:101DA0001E8DEA2408F50AEB3400F50B850A82F54E
:101DB00083E0240FFAE43400FB1204F68A0C8B0D46
:101DC000AE0CAF0DEE4F7003021E8D8E828F8374AA
:101DD000D0F0A3E4121EA2740DF085088285098359
:101DE000121EAAF0E5082428F582E5093400F583DF
:101DF000E0C0E0EE240BF582EF3400F583D0E0F094
:101E0000850882850983A3121EAAA3F0750C0675A6
:101E10000D00780C120D6FE5082402FCE509340072
:101E2000FDEE2405FAEF121E99120AFD850A82853D
:101E30000B83E0F50AEE240CF582EF3400F583E520
:101E40000AF0EE240DF8EF3400F9E8FAE9FBE50AB0
:101E50006030EE240F0808EF3400F98A828B83E8A3
:101E6000F0A3E9F0750B00780A120D6FE50824095C
:101E7000FCE5093400FD8A828B83121EB3120AFD31
:101E800080088A828B83E4F0A3F0121EBC7F0602D6
:101E90000C2EE5082402FAE5093400FB1204DE7476
:101EA0000222F08E828F83A3A322E08E828F83A3EF
:101EB000A3A322121D561204DE740222EEFAEFFBD7
:101EC000121BEDE0F912050222C082C0831207FC4A
:101ED0000222B974F7120B5CECF8EDF97409120BDD
:101EE00050E0FCA3E0FD801988828983E08A828B20
:101EF00083122290A882A9838A828B83A3AA82ABB1
:101F000083ECFEEDFFEE24FF1CEF34FFFDEE4F707F
:101F1000D7022419EEFAEFFB7F06020C2E74F5129D
:101F20000B5CECF8EDF9740B120B501223C0AC08EB
:101F3000AD09EC24FFF508ED34FFF509EC4D602CFC
:101F4000EAFCEBFD8C828D83A3AA82AB83E8FEE9D9
:101F5000FF8E828F83A3A882A9838C828D83E0FC6D
:101F60008E828F83E06C60C67900800279017F03E6
:101F7000020C2E74F6120B5CE9FE8C088D097808B1
:101F8000120D6F8E08AC087D001207EA7402120A67
:101F9000FD02241E74E8120B5C74DF120AE7E98567
:101FA0001882851983F08A108B118C128D1374039B
:101FB000120B50AC82AD8375839175823F740A1207
:101FC0000A3B758391758235740A120A3B758391B9
:101FD00075822B740A120A3B7439120B5012262593
:101FE000E4F004120B507409F0A37492F085188287
:101FF000851983E0640A600302214C8A088B0985F5
:10200000120A85130B909196780C1209F8780879CA
:102010000C1208DC850C08850D098A0C8B0D8512C5
:102020000E85130F90919678141209F8780C791494
:102030001208DC90919678141209F8780C79141231
:1020400008DCAE14AF1590918E780C1209F8781058
:10205000790C1208DC85100A85110BE50A450B6026
:1020600012790A7417120B50AC82AD83AA0AAB0B1B
:102070001205C8EE4F6012790A740D120B50AC8233
:10208000AD83EEFAEFFB1205C8E508450960127949
:102090000A7403120B50AC82AD83AA08AB09120577
:1020A000C8E50A450B602E7417120B50AC82AD8345
:1020B0007439120B50122200800E7401120B501250
:1020C0002212120B5012221A850C0E740D120B5094
:1020D00012222740E5740D120B50AC82AD83743987
:1020E000120B5012220A7004EE4F6020750C008013
:1020F0000E7401120B50122212120B5012221A856A
:102100000C0E7403120B5012222740E57403120BBD
:1021100050AC82AD837439120B5012220A701BEE40
:102120004F7017E508450970117401120B50122207
:1021300012120B501224C91207F67439120B5012E6
:1021400024C97421120AFD7F10020C2EE064106075
:10215000030221F98A088B097410781012094CAE19
:1021600010AF11EE4F60127910740D120B50AC824B
:10217000AD83EEFAEFFB1205C8E508450960127958
:10218000107403120B50AC82AD83AA08AB09120580
:10219000C8EE4F6046740D120B50AC82AD8374399B
:1021A000120B50122200800E7401120B50122212D8
:1021B000120B5012221A850C0A7403120B50AA82B9
:1021C000AB831207FC8A0E8B0F7404C3950EF8E4E0
:1021D000950FF9C3E50A98E49940CD7403120B50AA
:1021E000AC82AD837439120B501224C91207F0EE81
:1021F0004F600302213A0221237A007B0002214230
:102200001224CD1207F6750C0022122220E50A4591
:102210000B22E0FCA3E0FD743922122220050C22DF
:102220001224CD1207F022AA82AB831207FC8A1077
:102230008B117404C39510F8E49511F9C3E50E9859
:10224000E4992274F6120B5CEAFEEBFFEE4F700687
:102250007A007B008037EE2405FAEF3400FB12058C
:102260005C8A088B09A808A909E84960E388828983
:1022700083E4F0A3122290A3EEF0A3EF122290A326
:10228000A3A374FFF0E82405FAE93400FB02241E3E
:10229000F088828983A322C082C083EA4B700479CC
:1022A00005801612232B60047904800DEA24FBFAC2
:1022B000EB34FFFB1205627900D083D08202013536
:1022C00074F7120B5C7C0002241674F7120B5CE9A5
:1022D000FEECFFEA4B70047905804D90920BE0F81C
:1022E000EEC39840071204FC7903803C1224BE120E
:1022F0002646700512232B60051204FC80D9EEF0EF
:1023000074016F700DEAFCEBFD7A487B0312051A2D
:10231000800BEAFCEBFD7A487B031205147A007B04
:1023200080EEF91205267900022419EA24FFF582CD
:10233000EB34FFF583E0F42274F2120B5C890B7529
:102340000C00750D007E007F00A2AFE433F50AC2D9
:10235000AF9003488015EE4F700685080C85090D77
:10236000E50824FBF582E5091224C41223C0E50820
:1023700045096023E50824FFF582E5091224C4E03D
:10238000650B70D2EE4F7006AE08AF0980D27A00AE
:102390007B80120526800B7A007B8012052CEE4F85
:1023A0006015780C120D6FEEFCEFFD7A487B03127E
:1023B00005207402120AFDE50AA2E092AF021F1482
:1023C000E0F508A3E0F5092274F7120B5CA2AFE474
:1023D00033FEC2AFEC24FBF582ED1224C4E4F0A37B
:1023E000F012264270098A828B83800C1224D31249
:1023F00024048882898370F4ECF0A3EDF0EEA2E06F
:1024000092AF8015E824FBF8E934FFF988828983CC
:102410001224CDEA4B221205087F01020C2E7F0206
:10242000020C2E74F7120B5CE5A8FEC2AF8A828BF9
:10243000831224D3EC24FBF582ED1224C4E8F0A32C
:10244000E9F08A828B83ECF0A3EDF0EEA2E70224A0
:102450000074F5120B5C740B120B501224D3A2AF54
:10246000E433F50AC2AFEC24FBFEED34FFFF8A82B1
:102470008B831223C0EC65087003ED65098E828F93
:1024800083700D1224D38A828B83E8F0A3E9801035
:102490001224C9E824FBF582E91224C4EAF0A3EB74
:1024A000F08E828F83E4F0A3F0EC24FFF582ED122E
:1024B00024C474FFF0E50AA2E092AF021F6EEA2482
:1024C000FBF582EB34FFF583221224CD22E0FAA340
:1024D000E0FB22E0F8A3E0F92274F7120B5CE9FDBF
:1024E00090920BE0F8EDC3985029E5A8FEC2AFED3D
:1024F000C333F8E433F990035CE028FCA3E0398CA3
:1025000082F583E04AF0A3E04BF0EEA2E792AF79C8
:10251000008002790302241974F7120B5CE9FE9023
:10252000920BE0F8EEC398501FE5A8FFC2AFEAF4A3
:10253000FCEBF4FDEE12262EE05CF0A3E05DF0EF84
:10254000A2E792AF790080027903022419E9F874B6
:10255000FF687006C2AF790080027907020135C0BA
:1025600082C083120550900348E4F0A3F012058660
:1025700012056812058012055679000222B9C08240
:10258000C08312054480FB74F6120B5C75080012C0
:10259000054A12063AE50812262E122646700D0547
:1025A0000890920BE0F8E508C39840E990920BE0A0
:1025B000F8E508C3985068E5A8FCC2AFE508C33346
:1025C000FEE433FF90035CE02EF8A3E03FF988823D
:1025D00089831224C988828983E4F0A3F0ECA2E7FE
:1025E00092AFE508900657F0F974EE2EF5827490DC
:1025F0003FF583122625120B5A90065774FFF0E51B
:10260000A8F9C2AF90035CE02EF8A3E03F8882F502
:1026100083E04AF0A3E04BF0E9A2E792AF80031217
:10262000057A02241EE0F8A3E0F583888222C333F2
:10263000F8E433F990035CE028FAA3E0398A82F5E4
:1026400083228A828B83E0F8A3E0F9E84922C082E2
:10265000C08390032AE4F090032974FFF0900326CE
:10266000F0900325E4F0900324F0900327F0A3F00A
:10267000022C5F74EC120B5C900327E0F50CA3E0D6
:10268000F50DE50C450D7006120304022860850C5B
:1026900082850D83E0F914600A14600724FE60034C
:1026A0000228601203888A088B09AE08AF09EE245D
:1026B0000EF50AEF3400F50BEE2402F508EF3400B6
:1026C000F5098E828F83E0FAA80CA90DEE687002DE
:1026D000EF6960030227C974026A6003022859EE99
:1026E0002415F510EF3400F511851082F583E060B4
:1026F0002A1229FF7003A3E069602012286E1209D4
:1027000097780C120D6B850882850983120A1612C0
:1027100029F9120AFDE960030228591228651209F5
:10272000979091FE780C1209E5850882850983E56A
:102730000CF0A3E50DF0A3E50EF0A3E50FF085087E
:1027400082850983780C1209F8851082851183E04F
:10275000640170269002F0E0F508A3E0850810F50A
:1027600011E4F512F513780C7910120984850A82A8
:10277000850B83780C120A07804C850A82850B83AF
:10278000120D82AA0CAB0DAC0EAD0F1229F9120A74
:10279000FDE964017030850882850983C082C083A9
:1027A000122877D083D082780C120997850A828507
:1027B0000B83780C120A079002F6E0642770047409
:1027C000258002E004F002285974026A600302289E
:1027D000601203289002F3E0640170169002F2E0A8
:1027E0007010790112048A120460120484790012B4
:1027F00004901229FF7003A3E069601D12286E1275
:102800000997780C120D6B850882850983120A16C8
:102810001229F9120AFDE9703A12286512099790F7
:1028200091FE780C1209E5850882850983780C12DF
:102830000A07850882850983C082C083122877D061
:1028400083D082780C120997850A82850B83780CD5
:10285000120A079003267402F0EEFAEFFB120382CD
:102860007F0C020C2E1229ED9091E2780C22122995
:10287000ED9091E6780C229002F0E0F508A3E08557
:10288000080CF50DE4F50EF50F2274F0120B5CEA5E
:10289000FEEBFF8E828F83A3A3A3A3A3A3E0FAA3DF
:1028A000E0FB1203DCEE2402F8EF3400F98808891B
:1028B000098882F583120A161203D08508828509D9
:1028C00083120A161203C4EE240E1229D5120A1618
:1028D0001203D68E828F83E06440701CEE2412F8BF
:1028E000EF3400F988828983E0906064F0888289FF
:1028F00083A3E09060658006906064E4F0A3F090AC
:102900000327EEF0A3EFF0EE24161229D5E0F8A38A
:10291000E0F5838882120B5A906054E41229DDA3FB
:102920001229DD906182E0C2E6F07591BFEE2415B8
:10293000F8EF3400F9880A890B8882F583E0640196
:102940007003120412E5E170FCEE24141229D5E0A4
:10295000F874FF68600288E1850A82850B83740140
:10296000F09002C8E0640170671229E9780C120D3A
:102970006B850882850983120A161213C974041222
:102980000AFD8A088B098C0A8D0B9091B6780C127F
:1029900009F87808790C12085C7403780812094C5D
:1029A000E50824F4F508E5093401F5099002FDE095
:1029B000600312054AE4F50AF50B7808120D6B7AEC
:1029C000207B009002C1E0F912059E7404120AFDFA
:1029D0007F08020C2EF582EF3400F58322F0A3F07D
:1029E000A3F0A3F0A3F0A3F0221229ED221203F426
:1029F0008A0C8B0D8C0E8D0F2212136C7404229096
:102A000002EEE0F8A3E0F9A3E0682274EE120B5C9A
:102A1000890874FF6508702E900325E05407602331
:102A2000122B8C700879041203A6022B77790112FD
:102A30002B8E7004790180EF7902122B8E7007794A
:102A40000280E4022B73A9081203A68A108B11A935
:102A500008122B8E70057509018003750900E510B9
:102A60002402F50AE5113400F50BE50814600F1493
:102A70007003022B0B24FE7003022B5880C57902D1
:102A8000122B8E70387902122B7C50678E828F83C6
:102A9000A3A3780C1209F89091B2780C12099778D8
:102AA0000C120D6B850A82850B83120A161229F906
:102AB000120AFDE9703DAA10AB11022B77122B8C84
:102AC00070377904122B7C502A8E828F83A3A378CF
:102AD0000C1209F89091B2780C120997780C120D2B
:102AE0006B850A82850B83120A161229F9120AFDD8
:102AF000E960C3EEFAEFFB807EE509A2E05006AA8A
:102B000010AB1180727A007B00806C122B8C7034B9
:102B10007904122B7C50DC8E828F83A3A3780C1255
:102B200009F89091B2780C120997780C120D6B8508
:102B30000A82850B83120A161229F9120AFDE9701E
:102B4000B2022AB67901122B8E7004790180C3E596
:102B500009A2E0501E022AB67901122B8E60EC7990
:102B600002122B8E7004790280A8E509A2E05003BE
:102B7000022AB67A007B007F0A020C2E1203A68A74
:102B80000C8B0DAE0CAF0DE509A2E0227904120307
:102B9000A0E964012274F7120B5CE9FE90032AE0BD
:102BA000705B7401F0EE900329F01203F490032B94
:102BB000120A2290032FE4F0A3F09091DA120A1681
:102BC000900337120A2290033D7401F0A3F0A3E4AE
:102BD000F0A3F0900325E04EF0900324E004F064AD
:102BE00001600A74806E600574406E700A9003275D
:102BF0007429F0A37403F07A297B0380047A007BA4
:102C0000007F01020C2EC082C0838A828B83E0F891
:102C1000A3E0F98A828B83E4F0A3F088828983A3FE
:102C2000F088828983E0F4F8900325E058F090035F
:102C300024E014F0700B900327E4F0A3F09002C29C
:102C4000F0801CC082C083900324E0600A900327B8
:102C5000E0FAA3E0FB80047A007B008002E0F9D078
:102C600083D082020135C082C083E9F8900329E055
:102C7000687005A3E0F98002790080E3C082C08318
:102C8000900329E069700CA3E0640170067A297B47
:102C90000380047A007B0080C6C082C08390032436
:102CA00080BBC082C08312041812041E12042412B6
:102CB00004120231B1C082C0839061B1E0C2E0F081
:102CC000E0D2E0F0906188E0640470F80231B1C0B5
:102CD00082C0839061B1E0C2E0F09061F3E4F090D3
:102CE00061F2F0F8F9122D2F9061F0122D6A94FE26
:102CF000E9940D40F00231B1C082C0839061F3E4E9
:102D0000F09061F2F0F8F99061F0E0FA122D2F6A7C
:102D1000700A122D6F94FEE9940D40EB74FE6870FA
:102D200003740D6970047900800279010231B17475
:102D30000028F582748039F583E022C082C0839038
:102D400061C0E0FAE4F0F8F9E82400F582E93460C3
:102D5000F583E4122D6A9480E9940140EBEA9061D6
:102D6000C0F090618A74010231ACF0122D6F22E83C
:102D7000240108E93400F9C3E822C082C0838A82B2
:102D80008B83E0906016123147A3E0906017122DFC
:102D9000B8906018122DC1906019122DC690601A5B
:102DA000122DCB90601BF0E99060157005E0C2E039
:102DB0008003E0D2E00231B0F08A828B83A3A3E0EB
:102DC00022122DD6E022122DD1E022122DD1A3E025
:102DD00022122DD6A322F08A828B83A3A3A322746E
:102DE000F0120B5CEA906005F0EBA3F0ECA3F07F2F
:102DF00008020C2EC082C0837401699060037005C4
:102E0000E0D2E08003E0C2E00231B0C082C0839033
:102E10006003E054F9490231B0C082C083EA906097
:102E20000AF0EB54010231AFC082C083E990600C1C
:102E30007005E0C2E08003E0D2E00231B0C082C0A1
:102E400083E990600C7005E0C2E18003E0D2E1020A
:102E500031B0C082C083906061E0022E8F74F012A6
:102E60000B5C9061947420F0EAA31231A3022DED63
:102E7000C082C083900341E4F0906022F0A3F0A3ED
:102E80007830F0A3D8FC0231B1F07F02020C2EF9A9
:102E90000231B174F4120B5CEAFEEBFF89088C0975
:102EA000900341E0640870047903807E1204C0E955
:102EB000F46004790080737900750A01750B00E9EC
:102EC000780A120AD4AC0A906022E05C7053E04C9D
:102ED000122F2FFA74603BFB78068E828F8312319B
:102EE000728E828F83A3AE82AF838A828B83A3AAE2
:102EF00082AB8318E870E3E508700AECF4F89060A0
:102F000023E0588005906023E04CF0900341E004FA
:102F1000F0740165097005120472809712047E80B6
:102F20009209E9C39408409179017F04020C2EF0C4
:102F3000E975F006A4FAABF074242A22C082C0839B
:102F4000E99060147005E0C2E28003E0D2E2023151
:102F5000B074F6120B5C750801750900E978081267
:102F60000AD4906009E04508022E8974F7120B5CC0
:102F70001204C074FF69600712047279008002793C
:102F8000057F01020C2E74F6120B5C7508017509A1
:102F900000E97808120AD4E508F4F8906009E058CE
:102FA000022E89C082C083906009E40231B074F2BD
:102FB000120B5C74FA120AE77A007B60E970027AFD
:102FC00033906009E0F8906022E0F50BA3E0F990FF
:102FD00061C07401F0E88A828B83F0A3E50BF0A353
:102FE000E9F0A3AA82AB839061C0E4F0F50A750C06
:102FF00001750D00E50A780C120AD4E50C550B603A
:1030000056750900E50A75F006A4F8A9F08509824D
:10301000AC82742428FE746039FFEE2CF582EF1226
:10302000313CC0E0123118D0E012314D40DF9061E8
:10303000C07401F075090012312AC0E0E82CFCE9E7
:103040003400FDEA2CF582EB3DF583D0E012314DE2
:1030500040E59061C0E4F0050AE50AC39408408E9B
:103060007406120AFD7F06020C2E74F2120B5C74B9
:10307000FA120AE77A007B60E970027A3312314271
:10308000E0F8A3E0F50BA3E0F9A3AA82AB8390617B
:10309000C0E4F0E8906009F0E50B906022F0E9A34D
:1030A000F0750A00750C01750D00E50A780C120A1E
:1030B000D4E50C550B60559061C07401F0750900A2
:1030C000E50A75F006A4F8A9F0850982AC82EA2821
:1030D000FEEB39FFEE2CF582EF12313CC0E01231ED
:1030E00018D0E012314D40E19061C0E4F0F50912D2
:1030F000312AC0E0E82CFCE93400FD74242CF58270
:1031000074603DF583D0E012314D40E3050AE50AD5
:10311000C39408408F023060851882851983E58248
:103120002CF582E5833400F58322850982AC828503
:103130001882851983E5822CF582E5833400F583B6
:10314000E0229061C07401F08A828B8322F005092D
:10315000E509C3940622C082C0837A007B60E970CF
:10316000027A33123142E4F0A3F0A3F09061C0027E
:1031700031B01231762212321FF022C082C083E9B0
:10318000906002802BC082C083E99060027005E0ED
:10319000D2E38003E0C2E38017C082C083E990617C
:1031A000C6800DF0EBA3F0ECA3F0ED22F0A3F0A3AA
:1031B000F0D083D082020135C082C083E960171449
:1031C000601C14602114602614602B14603014609D
:1031D0003614603C80419061E9E054FC8038906195
:1031E000E9E0D2E080309061E9E0C2E080289061BF
:1031F000E9E0D2E180209061E9E0C2E180189061CD
:10320000E9E0C2E1F080DA9061E9E0C2E0F080E15B
:103210009061E9E04403F0809875E182020135E0B5
:103220008A828B8322C082C083E9C33324179061D2
:1032300084F074016A70079061A6740A8017E9C36C
:103240009414E0500904F09061A67425800714F0EE
:103250009061A6740F0231B074F5120B5C890A7983
:1032600000750801750900E97808120AD4906022F7
:10327000E055086052E975F006A4FCADF074242C0A
:10328000FC74603DFD750800850882AE82EC2EF569
:1032900082ED12313CF8EA2EF582EB12313C687077
:1032A000090508E508C3940640DE74066508701732
:1032B000906023E0F508750900E97808120AB5E581
:1032C000085401650A600909E9C39408409379FF2D
:1032D0007F03020C2EC082C0839061907404F0A31F
:1032E0007448F0A3E4F09061807440F09061BC7485
:1032F00007F09061877469F09061B67416F07900F8
:1033000012030A7902120310901560E493F4600628
:10331000E493F91202E679051204AE0236E9C0829E
:10332000C083E9540FF9906185E0696012E5C654E5
:10333000804449F5C6E59E547F644970F8E9F0532E
:10334000C680E59E547F70FA0236E974F7120B5C72
:10335000E5A8FE53A87E1202F2C2BA539AFEC289B1
:10336000759B00C2C21202F875A91175B905120247
:10337000FED2BA439A0174805E42A87F01020C2EED
:10338000C082C083906181E4F0A30236E675E90053
:1033900075910075BF00020135C082C083906181C4
:1033A000E4F0A374C0F0A3E40236E8C082C08374E2
:1033B000F8120AE79002C41238A1E84970030234F7
:1033C0004D9002C4E0544060237908851882851925
:1033D00083AA82AB83120340851882851983AA824F
:1033E000AB831202869002C4E054BFF0E0A2E0502A
:1033F00008790012345554FEF0E054026008790157
:1034000012345554FDF0E054046008790012346021
:1034100054FBF0E054086008790112346054F7F06E
:10342000E054106008790212346054EFF0E0542048
:103430006008790312346054DFF0A3E05401600D9A
:1034400012031C1202989002C5E054FEF074081298
:103450000AFD0236E912030A12028C9002C4E0222D
:103460001203101202929002C4E022C082C083E9CB
:10347000600514602A804F90619A7433F0A37455EC
:10348000F09061A0743AF09002FBE064017009C210
:10349000919002C67467802D9002C6746180269058
:1034A000619A743FF0A3745AF09061A0747FF09019
:1034B00002FBE064017009D2919002C6747180052C
:1034C0009002C6746AF00236E9C082C083E9600BDC
:1034D00014600D14600F1460118020901564801525
:1034E0009015658010901566800B9002FBE06401DA
:1034F00060F3901567E493906186F00236E974EE0C
:10350000120B5C74F4120AE7851882851983AC8269
:10351000AD837583917582FA7404120A3B90156429
:1035200093F46003023690907808E0C3940250034D
:103530000236707404120B50AC82AD8375839175A2
:1035400082527408120A3BF97AFF7BFF7FFF7E00EC
:103550008982858210801874086E70030236257483
:10356000096E7003023625740A6E7003023625E573
:1035700010C333FCE433FD7404120B50E5822CF5C8
:1035800082E5833DF583E0F50EA3E0F50F8E087527
:10359000090074027808120AD474482508FC74786B
:1035A0003509FD8C828D8378081209F87408780833
:1035B00012094C85080C85090D8C828D83780812C0
:1035C00009F87418780812094CE50C4508F508E567
:1035D0000DF509C3E50E9508E50F95098C828D83DD
:1035E00078081209F88C828D8378081209F874180B
:1035F0007808401412094CE50C4508FCAD0DE50EA9
:10360000C39CFCE50F9D800F12094CE50C4508C3D7
:10361000950EFCE50D950FFDC3EC9AED9B5006EC65
:10362000FAEDFBEEFF0EEEC3941350030235577410
:10363000FF6A700374FF6B602D8F087402780812A4
:103640000AD474481238CE74783509F58378081294
:1036500009F8851882851983E5822510F582E583AE
:103660001238BFE508F009E9C39404500302354855
:103670007508017509007808120D6F7402120B505D
:10368000AC82AD837A597B051206467402120AFD9C
:10369000740C120AFD7F0A020C2EC082C083906156
:1036A00086E0F8901567E493687009901566E493D6
:1036B000906186F09061AE7468F0A3746AF09062D5
:1036C0004574FBF0A304F053F4FD43FE029002FBAB
:1036D0007401F09061A0E0643A700479008002798E
:1036E0000112030A8003F0A3F0D083D082020135D7
:1036F0001238AB940622E0C4333354C022C082C0D7
:10370000839002F67425F09002F47401F0A3E4F0C3
:103710007A01FB1204429002E2E0241612374A7446
:103720002EF0A37403F09002F3E06401701690028F
:10373000F2E07010790112048A1204601204847994
:10374000001204960236E9E02414F8A3E01237517F
:10375000223400F9888289832274F6120B5C74FA91
:10376000120AE79002EBE064017008120322900253
:10377000EBE4F075E1F19002E2E0241512374A74AF
:1037800001F09002EDE064017053909168C0828571
:103790001882851983AC82AD83758391D0827406BB
:1037A000120A3B75D90D9002E41236F64403F5D99E
:1037B0007800880874E51238CE74021236F040F2B0
:1037C00078008808851882851983E5821238CEE54D
:1037D000831236F040EC75E1957901800279001290
:1037E000044890063D12384C7458F0A37403F0A3BB
:1037F00012384C12384C123855745EF0A374031210
:10380000386A9002E4E0F97AE57B0212042A123861
:1038100043790112044E9091F6120A1612045A903E
:10382000919A120A1612043079001204A29002E250
:103830001237477416F09002C27405F004120AFDA4
:103840000238B69002F6E0F9121431227452F0A355
:103850007403F0A32212385922744CF0A37403F0BD
:10386000A3744CF0A37403F0A32212386E22F090DC
:10387000064B12387AA312387A22123859744CF057
:10388000A37403F022C082C0839002E2123898F041
:10389000A3F01238430236E91238F5A3A3A3A3E438
:1038A000221238A522E0F8A3E0F9221238C9E0F587
:1038B000D908E8C322F07F02020C2E1238C322126C
:1038C00038C9221238C9E4F0223400F583222508D1
:1038D000F5822274F6120B5C7800880874CA1238DC
:1038E000CE74021238BB08E8C3940840ED9002CAB7
:1038F00074010238B5E0F8A3E0F5838882A3A3221F
:1039000074F4120B5CE99002C1F012040C90780080
:10391000E0C4540F540764037004793F8002797F38
:103920007508067509007808120D6F7CAF7D027A64
:10393000EA7B071206407402120AFD9002AFE0F41F
:103940007049A3E0F47044A3E0F4703FA3E0F47086
:103950003AA3E0F47035A3E0F4703090780EE09074
:1039600002AFF090780FE09002B0F0907810E09005
:1039700002B1F0907811E09002B2F0907812E090ED
:1039800002B3F0907813E09002B4F09002B5123ACE
:103990008F123EEC9002D37406F0A3740D123C1209
:1039A0007432F0A37401F09002E5123A8F9002E4B1
:1039B000E4F09002EB04123C12123A86123A86129C
:1039C0003C1204F0A3123C127425123C12F0900237
:1039D000F974FFF0A3E4F09002FBF09002FD04F014
:1039E0001203161202C81203B279017AFE7B021288
:1039F00003409002FEE075F01484E5F004F0120339
:103A0000467A009002C1E0F9120574907803E064F0
:103A100042705E9002FEE014F07056C2AF123A207F
:103A200000781ED0E0F618D0E0F6E59F5407F97054
:103A3000059091F280039091EE78081209F8E9C49C
:103A4000C0E0781DE65508F50808E65509F5097443
:103A50000B7808120AC5D0E02508F8906270E0A241
:103A6000E740F8E8C333906272F0906270E0D2E011
:103A7000F09002E0E4F0A3F07A80FB9002C1E0F95C
:103A8000120526023C0DF0A37480F0A37402227488
:103A9000FF123C18F0A3F02274F7120B5CEAFEEB65
:103AA000FFEEA2E050429002C3E0C39480E0500FCA
:103AB000C333F8E433F9743D28F5827406800EF4BC
:103AC000C333F8E433F9744B28F582740639F5836F
:103AD000123EE3120B5A7A009002C1E0F91205740B
:103AE000EE6401FAEFFB804D5480602179001205ED
:103AF0006E909192120D827A007B019002C1E0F9E2
:103B000012059E7404120AFDEE648080D6EF540103
:103B1000600C790112056EEEFAEF640180C7900225
:103B2000C8E06401700BEE54206006EE6420FA8059
:103B3000047A007B00023C08C082C083C2AF12033B
:103B4000E8E5E170FC75E101123C211204247907DB
:103B500012049C79011204A2790212043C1204603E
:103B60001204847900120496790112049690919AB5
:103B7000120A161204309002ECE4F01203761203DB
:103B80003479001204A8906012E4F0A3F09060630E
:103B9000F0751B009002C2F09002C4F0A3F09002F6
:103BA000C7F09002C804F09002D27403F09002FCB7
:103BB000E4F0D2AFF9023C01C082C0839002AF12A0
:103BC0003BF8F09002B0123BEBF09002B1123BEBED
:103BD000A3F09002B2123BEBA3A3F09002B3123B0E
:103BE000F0F09002B4123BF0A38013123BF8A32232
:103BF000123BF8A3A3A3A322E08A828B8322F0794D
:103C000000D083D0820201357F01020C2E7F040296
:103C10000C2EF0A3E4F0A322F0A3F0A3F0A3F0A3F2
:103C2000221202EC1202E075E1F122E0FAA3E0FBBD
:103C30002274F7120B5CE9FE7409120B50E0FF745A
:103C40000A120B50E0F508EE600574016E7028EF63
:103C5000600574016F7020123EC6501BEC24FCF806
:103C6000ED123ECF5011C3EA9CEB9D400AE508607F
:103C70000B7401650860057912023D1D9002ECE0AD
:103C800064017005790C023D1DEEA3F0E508900279
:103C9000F2F0EF9002E4702FE4F09002AFE09002B7
:103CA000E5F09002B0E09002E6F09002B1E0900200
:103CB000E7F09002B2E09002E8F09002B3E09002E8
:103CC000E9F09002B4802E7401F09002B5E0900209
:103CD000E5F09002B6E09002E6F09002B7E09002C4
:103CE000E7F09002B8E09002E8F09002B9E09002AC
:103CF000E9F09002BAE09002EAF09002EEEAF0A356
:103D0000EBF0A3ECF0A3EDF0E50870047900800877
:103D1000740165087005790112046C7900023C0891
:103D200074F4120B5CE9FEEAFF9002C2E0640960E1
:103D300014E0640A600FE0640B600AE0640C600544
:103D4000E0640D70057921023EC39002EDE0F86059
:103D500005740168703D9002E4E0F8600574016844
:103D600070319002EE123C2B123EC65026A3E0F8B2
:103D7000A3E0F9E824FCFCE934FFFDC3EC94FDED7D
:103D8000943F500FC3EA98EB994008EF600A740122
:103D90006F60057912023EC3EE7003023E39147063
:103DA000F29002ECE06401609C790212038E9002B2
:103DB000E2EAF0A3EBF09002EC7401F09002EBF079
:103DC000EF9002F3F09002C2E06003023EC11203E2
:103DD000281203F48A088B098C0A8D0B9091EA78DB
:103DE000081209979091FE78081209E5123EDA78D8
:103DF00008120A07123EDAA3A3A3A3E4F0A3F01269
:103E00003EDAC082C0839002F0E0F508A3E0F50935
:103E1000E4F50AF50BD083D0827808120997900256
:103E2000E2E0240EF8A3E03400F988828983780860
:103E3000120A0712037C023EC19002ECE0700302FA
:103E40003D45A2AFE433F508C2AF7AE27B0212032C
:103E5000949002ECE4F01203ACE9703C1203E89099
:103E60006182E0C2E6F0E5E170FC75E1017591BFA9
:103E700079011204A275E1F19002C8E064017018A2
:103E80007A207B009002C1E0F91205AA7A207B001B
:103E90009002C1E0F912052CE508A2E092AF900271
:103EA000F2E0F874016870051204848014A3E064E1
:103EB00001700EE8700B1204601204847901120480
:103EC000907900023C0DEA24FCF8EB123ECF22343C
:103ED000FFF9C3E894FDE9943F229002E2123EE329
:103EE000A3A322E0F8A3E0F5838882229002AFE04A
:103EF0009002BBF09002B0E09002BCF09002B1E002
:103F00009002BDF09002B2E09002BEF09002B3E0E9
:103F10009002BFF09002B4E09002C0F02274F4125C
:103F20000B5C74FC120AE77E00900597E4F09005A4
:103F300094F07F7D7508047509007808120D6F7480
:103F400002120B50AC82AD837A007B00EF1243F873
:103F5000120AFD851882851983C082C0839091D68C
:103F600078081209F8D083D08278081208087019EE
:103F7000900594E06010F912079CEFF912079C90ED
:103F80000594E4F08021EF80FA8518828519837802
:103F9000081209F8E5084509450A450B7004EFFECB
:103FA0008005EFF912079C0FEFC3947F40869005C0
:103FB00094E07026EE7018797D1207909005957444
:103FC00004F0A3E4F0900597E0601979008017F001
:103FD0001207A2EEF91207AE800AEE6004F912078A
:103FE000961207A2790102408574F7120B5C74FCEB
:103FF000120AE7E9FE9091D6120A168518828519F1
:1040000083120A22851882851983AC82AD837A00D7
:104010007B001207BA900597E07005EE900594F0CA
:104020007404120AFD7F01020C2ED083D08202019B
:104030003574F4120B5C74FF120AE7890890059737
:10404000E060089005977401F0803612064C7E00FF
:104050007F00750A01750B00780A120D6F74021249
:104060000B50AC82AD83EEFAEFFBA9081243F912B4
:104070000AFD851882851983E0F470C71240D74085
:10408000D1740180027404120AFD7F04020C2E74A4
:10409000F4120B5C74FF120AE789087E007F00753A
:1040A0000A01750B00780A120D6F7402120B50ACE6
:1040B00082AD83EEFAEFFBA9081243F9120AFD85DF
:1040C0001882851983E0F46007A908120796800515
:1040D0001240D740CA80AAEE24010EEF3400FFC37D
:1040E00094082274F4120B5C74FC120AE77EFC7FC5
:1040F000077508047509007808120D6F7402120B19
:10410000501243EC120AFD851882851983C082C0C3
:10411000839091DA78081209F8D083D08278081257
:104120000808700AEE24FCFEEF1241CC50C3EE24C6
:1041300004F8EF3400F9900595E8F0A3E9F00240A7
:104140008574F4120B5C74FC120AE78909EAFEEB31
:10415000FF8C08EE24FCFEEF1241CC4068750A0487
:10416000750B00780A120D6F7402120B50AC82AD01
:1041700083EEFAEFFBA9091243F9120AFD74021249
:104180000B50E0F8A3E0F985188285198385080AA9
:10419000E0650A7002A3E0700AEEC398FAEF94009B
:1041A000FB8026E9548070ABE82404FAE93400FB74
:1041B000C3EE9AEF9B400EEEC398F8EF99F9E8240E
:1041C000FCFEE980937A007B0002408534FFFFC348
:1041D000EE9404EF94002274EA120B5C74F8120A55
:1041E000E78910750DFF747D65107005750C7E8074
:1041F00003750C7D750A04750B00900595E024FC91
:10420000FEA3E08005EE24FCFEEF1241CC50030239
:104210004334900597E0600302434E750804750926
:10422000007808120D6F7402120B50AC82AD83EE51
:10423000FAEFFBA9101243F9120AFD8518828519BD
:1042400083E0F47003A3E0F4702D7402120B50E0CD
:10425000F8A3E0F9548070AD124479EE98EF9950CC
:104260000302434E7402120B50124358F8EF99F9AF
:10427000E824FCFEE98093851882851983A3E05425
:104280008070E1851882851983850D08E0650870C6
:1042900002A3E060CF851882851983E0F50DFCAAA2
:1042A0000AAB0BA90C1207A88B09EA450970B57473
:1042B00002120B50124358F508EF99F5098814893A
:1042C00015750E00750F0075120475130078121223
:1042D0000D6F7406120B50AC82AD83E508250EFA03
:1042E000E509350F1243F3120AFD7404120B50ACAA
:1042F00082AD83E50A250EFAE50B350FFBA90C12FA
:1043000007BAE50E2404F50EE50F3400F50FC3E5FA
:1043100014950EE515950F50AE7402120B50E02463
:1043200004F8A3E03400F9E50A28F50AE50B39F5AD
:104330000B024264A90C120790900597E0700A9056
:104340000595E50AF0A3E50BF0A91012079674088D
:10435000120AFD7F0E020C2EE0F8A3E0F9EEC398DE
:104360002274F0120B5C74FC120AE7890B8A088B2A
:1043700009ECFEEDFF7414120B50E0F50A8014E511
:10438000082404F508E5093400F509EE2404FEEFDD
:104390003400FF850A0C74FF250CF50A0460437590
:1043A0000E04750F00780E120D6F7402120B50ACD4
:1043B00082AD83AA08AB09A90B1243F9120AFD7852
:1043C0000E120D6FEEFCEFFD7402120B50AA82ABC1
:1043D000831204E47402120AFDE970A39005977435
:1043E00001F07404120AFD7F08020C2EAC82AD832A
:1043F000EEFAEFFB900594E0F91206407402227485
:10440000F1120B5C890E8A088B09ECFEEDFF90051A
:1044100097E0704D750A01750B00780A120D6F8ACE
:104420000A8B0B7402780A120AC5890CF50D7409FF
:10443000780C120AD4E50A2400FAE50B350DFB12BC
:1044400006467402120AFD750A01780A120D73EE0F
:10445000FCEFFDAA08AB09A90E1207B47401120AF9
:10446000FD7F07020C2EC082C08312078AE9700408
:1044700079018002790002402AE82404F8E9340036
:10448000F9C322C082C0839002A774FFF0A3F0A3F7
:10449000F0A3F0A3F0A3749FF0A3E4F0A37420F0C2
:1044A0009002A614F0D083D0820201357F02020C64
:1044B0002E7F0A020C2E74EE120B5C8A088B09897F
:1044C0000B8C0E8D0F900344E07009900346E07052
:1044D000030245809002A4E0600302458089828542
:1044E000820C750D00E92407FAE43400FB1204F68F
:1044F0008A108B11AE10AF11EE4F7003024591740C
:10450000186508700474206509600C7417650870DC
:1045100004742065097010900346E0600AF50A8E65
:10452000828F837492800C900344E0F50A8E828F10
:10453000837491F0A3740E1245B38E828F83A3A36C
:10454000F08E828F83124981EE2405F8EF3400F952
:10455000E8FAE9FBEE24070808EF12471DF0780C93
:10456000120D6FAC0EAD0F8A828B83E0FAA3E012BE
:1045700046E4120AFDEEFAEFFBA90A1205028011C9
:10458000780E120D6FAC0B790E1202B07402120A83
:10459000FD0244B174F6120B5CE9FE8C088D0978BB
:1045A00008120D6FEEFC79FF1202B07402120AFDC0
:1045B0000244ACF09002A5E02274F0120B5C890971
:1045C0008A0A8B0B8C087410120B50E0F50CA3E0D8
:1045D000F50D74072508FA74FF65096004780380F7
:1045E000027802E82AFA7B001204F68A0E8B0FAEDC
:1045F0000EAF0FEE4F70030246BB8E828F837401A5
:10460000F0A374FFF0EE24020A0AEF3400FBEE245C
:1046100004F8EF124710E509124706E02402124998
:1046200034A90B74FF65096031740325081245B382
:10463000C0E01246C9D0E01246F4E50A1246F4A3DF
:10464000E9F085080A750B00780A120D6FAC0CAD05
:104650000D8A828B83E02406805574022508124659
:10466000C0C0E01246C9D0E01246EBE0C0E01246FE
:10467000D6D0E01246EBA3E0C0E01246D6A3D0E0CD
:10468000124700E50A124700A3E9F085080AE50A87
:1046900024FDF50AE434FFF50B780A120D6FE50CE2
:1046A0002403FCE50D3400FD8A828B83E02408128C
:1046B00046DB120AFDEEFAEF1249A47F08020C2E27
:1046C000F0850C82850D83E0221246CD228A828BF2
:1046D00083E0124927221246CDA322FAA3E0340038
:1046E0001246E422FB1204DE740222F0850C82855D
:1046F0000D83A3221246F82212472DA3A3A3A322BF
:104700001246F8A3A32212470A22F08A828B832240
:1047100012471D1247297404124729A3223400F9B5
:104720008A828B83E8F0A3E92212472D22F08A8245
:104730008B831249962274E8120B5C89148A118CBF
:10474000168D178B0D741A120B50E0F5108B82AE7C
:1047500082900344E0700302481C7A2F1248FA70DA
:10476000030248F51249687402F0EA2403F50EEBDF
:104770003400F50F850E82F5837401F0EA2406F506
:1047800008EB3400F50912497C750C00807385082C
:1047900082850983E514F0A3E511F07512067513FF
:1047A000007812120D6FAC16AD17E5082402FAE579
:1047B000091246DE120AFD850882850983A3A3A398
:1047C000A3A3A3A3A3EEF08E127812120D6F741A96
:1047D000120B50E0FCA3E0FDE5082409FAE50912FC
:1047E00046DE120AFDE5082428F582E50912499FF4
:1047F000E510F0050CE5082429F508E5093400F575
:1048000009850E82850F83E0F8E50CC398500302FA
:10481000478EAA0AAB0B9003440248F29002AEE026
:10482000A2E540030248F59002A6E0A2E14003029F
:1048300048F5740C250DF50C7407250CFA1248FA8E
:1048400070030248F5124951F508EB3400F50912DE
:104850004948850882850983E8F0A3E912490E12C8
:10486000498C124907743E124907A3E50C12491BF3
:10487000740212491BA3740112492EE51412492E29
:10488000A3E511F0750E06750F00780E120D6FACD2
:1048900016AD17850882850983E024071246DB12CE
:1048A0000AFD850882850983E0240D124943F08EB4
:1048B0000E780E120D6F741A120B50E0FCA3E0FD7F
:1048C000850882850983E0240E1246DB120AFDA8C2
:1048D0000D850882850983E028F8A3E03400F9E813
:1048E000240EF582E912499FE510F0AA0AAB0B905D
:1048F00003421249A87F10020C2E7B001204F68A94
:104900000A8B0BEA450B2212490E12491622F0853A
:10491000088285098322124992A32212491F22127A
:10492000490E12492622E0124997A3A3A322124955
:104930001FA3A32212493822F8A3E03400F9888289
:10494000898322124938EE22EA2404F8EB3400F974
:104950002212495522124959228A828B837401F00E
:10496000A374FFF0EA2402228A828B837491124995
:104970007222F0A3743E12470AA3A3228A828B8379
:10498000A3A3A3A3E508F0A3E509F02212499274BA
:10499000042212499622E0F8A3E0F58388822234AB
:1049A00000F58322FB900342E0F91205022274F421
:1049B000120B5C907803E06442705E9002FEE0149B
:1049C000F07056C2AF1249C800781ED0E0F618D079
:1049D000E0F6E59F5407F970059091F280039091FD
:1049E000EE78081209F8E9C4C0E0781DE65508F52C
:1049F0000808E65509F509740B7808120AC5D0E0D5
:104A00002508F8906270E0A2E740F8E8C3339062AE
:104A100072F0906270E0D2E0F0124B007022E5A1DB
:104A2000A2E5500875A1DF12035880179002C3E079
:104A30007004790180027900120364124A48E4F09C
:104A400012037C7F04020C2E9002E2E02415F8A3EE
:104A5000E03400F9888289832274F4120B5C124BD3
:104A6000006003024AFA79011203649002F6E064DE
:104A700027700474258002E004F09002E2E0240232
:104A8000F8A3E03400F9E8FAE9FB9002EEE0F5085B
:104A9000A3E0F509E4F50AF50B8A828B8378081206
:104AA00009AA9002E2E0F8A3E0F5838882A3A3A319
:104AB000A3A3A3E4F0A3F09002F0E0F508A3E0F5CF
:104AC0000989838A8278081209979002E2E0240E0D
:104AD000124A4E7808120A079002E2E02414124AA1
:104AE0004E7416F09002E2E02416124A4E742EF034
:104AF000A37403F0124A487401F012037C024A4383
:104B000079021203A0E9640122C082C08353BFEF7F
:104B1000124B00700C7AE27B021203949002ECE4D8
:104B2000F075E1F112037CD083D08202013574F676
:104B3000120B5C74FC120AE7E9FE9061C8E0700396
:104B4000024D127401120B50858208858309780882
:104B5000120D6F7508057509037808120D6F74063C
:104B6000120B508582088583097808120D6F75082D
:104B7000FF7509027808120D6F7408120B50AC8291
:104B8000AD83740B120B50AA82AB8312036A7408B4
:104B9000120AFD9002F3E06401702E9002F2E0F838
:104BA00070137C01851882851983E0F97AFF7B02F6
:104BB0001204668014740168700F85188285198349
:104BC000E0F97AFF7B021204787401120B50E0F5D1
:104BD000087808120D737508057509037808120D19
:104BE0006F7405120B50124D1C120B50E0FA740634
:104BF000120B50E0F91202B67403120AFD1204B44B
:104C00009061C8E07003024D1274016E6003024CA3
:104C1000D27401120B508582088583097808120D21
:104C20006F7508057509037808120D6F7406120B6D
:104C3000508582088583097808120D6F7508FF7505
:104C400009027808120D6F7408120B50AC82AD8304
:104C5000740B120B50AA82AB8312036A7408120AF7
:104C6000FD7401120B50E0F5087808120D737508F9
:104C7000057509037808120D6F7405120B50124D5B
:104C80001C120B50E0FA7406120B50E0F91202B637
:104C90007403120AFD9002F8E4F09002F7E004F0C9
:104CA000640270269002F4E0F8A3E0C313F9E8135D
:104CB000F89002F4F0A3E9F0E84970099002F47466
:104CC00001F0A3E4F09002F7E4F01203701204B4D0
:104CD000804075E1819002F7E4F0A3E004F0640203
:104CE000702D9002F4E0F8A3E0F9E8C333F8E9335B
:104CF000F99002F4E8F0A3E9F0C3E89401E9940123
:104D000040089002F4E4F0A304F09002F8E4F012FA
:104D100003707404120AFD7F02020C2EE0FB7CFF7C
:104D20007D0274032274F1120B5C74FE120AE7EA2E
:104D3000FEEBFF7411120B50E0FAA3E0FB741312A8
:104D40000B50E0F8A3E0F9880889097415120B509C
:104D5000E0F8A3E0F97417120B50E0F50AA3E0F5B0
:104D60000BE5D924F9F50C850882850983F0E5D98E
:104D7000F50D740F550D601014601414602324FE9B
:104D8000602F24FE602380318E828F83E480308EFA
:104D9000828F837401F0850882850983E024FA807C
:104DA0001E8E828F83740380168E828F837402809E
:104DB0000E8E828F83740480068E828F8374FFF040
:104DC000E50DA2E6E4338C828D83F0EA4B700A7A1B
:104DD00006E5D91AEA601E80F87C00E5D9C0E08CAF
:104DE00008EA2508F582EB3400F583D0E0F00CECFE
:104DF000C3940640E6E8497A00701FEAC3950C5058
:104E00001FE5D90A80F5E5D9C0E08A08E82508F54C
:104E100082E93400F583D0E0F00AEAC3950C40E65D
:104E20007800E5D9C0E08808851882851983E58275
:104E30002508F582E5833400F583D0E0F008E8C367
:104E4000940240DE851882851983E06480700A85AB
:104E50000A82850B83747F80149002C6E0F885185F
:104E600082851983E0C398850A82850B83F07402DA
:104E7000120AFD7F07020C2E74F6120B5C9002F4EE
:104E8000E064017002A3E070067A017B00801A12D0
:104E9000033AE9F879009002F4E0FAA3E0FB120A81
:104EA0005CEA24010AEB3400FB120442024D177441
:104EB000F7120B5C74FF120AE7E9900598F01205EF
:104EC000E07A267B901205F2851882851983740892
:104ED000F0AC82AD8379017A017B041207607CA07B
:104EE0007D0F7A027B0012020E7CA07D0F7A037B7D
:104EF0000012020E900598E0F91205CE7A007903AF
:104F00001206D07A017B00900598E0F9120526740C
:104F100001120AFD7F01020C2E74F4120B5C8A0848
:104F20008B09EB54806041900598E0F912050E8AD8
:104F30000A8B0BA80AA90BE8FEE9FFE84960208E5E
:104F4000828F83E064C07010A3A3A3E0FA8E828FE7
:104F500083A3A3E0F91207D8EEFAEFFB1204FCAA30
:104F600008E5096480FB8019EAA2E050107ADE7B34
:104F70009112075AE5086401FAAB0980047A007BB4
:104F8000007F04020C2E74F7120B5C12076C900564
:104F9000DB125014024F1474F5120B5C8A0AEAA259
:104FA000E0500E9005DBE0700512501480031207EC
:104FB0006CE50AA2E350589005DBE0705290059929
:104FC000E0604C90059AE004F0900599E0F89005B7
:104FD0009AE0C3984002E4F07508017808120D7356
:104FE000790A90059AE02401FCE43400FD7A617BA3
:104FF000911206C47401120AFD90059A125286128B
:105000000AD4749D2508FA74053509FB12526E7F87
:1050100003020C2E7401F0900599E4F079017AB442
:105020007B901206BE79027A0C7B921206BE79033F
:105030007AC37B901206BE79047AC37B901206BEB7
:105040007B007A0079031207662274F0120B5CEA87
:10505000FEEBFFEE2404F8EF3400F9E8FAE9FBEE8A
:105060002403F508EF3400F5098E828F83A3A3E0B3
:10507000600D1470030251FF24F460160252697926
:10508000017AFC7B901206BEAA08AB0912526E028E
:1050900052698A828B83E0F50CEE2405F508EF3423
:1050A00000F50985080AF50B900599E0C3940850AE
:1050B0007A750D008028120D6F850D0E7403780E21
:1050C000120AD4749D250EFC7405350FFDAA0AAB97
:1050D0000B1204E47402120AFDE9704F050D9005ED
:1050E00099E0F8E50DC398750E06750F00780E402F
:1050F000C5120D6FAC0AAD0B125278120AD4749D12
:10510000250AFA7405350BFB1204DE7402120AFD3F
:10511000125278120AD4749C250AF5827405350B54
:10512000F583E50CF0900599E004F0EE240BF50A08
:10513000EF3400F50B850A82F58312529DC3E89483
:1051400029E99400A2D265D0335003025269750C4C
:105150000E750D00780C120D6F1252917A877B90AC
:105160001208027402120AFD8B0DEA450D603F75AC
:105170000D00780C120D6F1252917AA57B901208D7
:10518000027402120AFD8B0DEA450D6021750D00B7
:10519000780C120D6F1252917A597B061208027424
:1051A00002120AFD8B0DEA450D6003025269AA083E
:1051B000AB091207E47403F91206BE7508047808F7
:1051C000120D73790A850A82850B83E0FA3395E024
:1051D000FBEA2464FCEB3400FD7A737B911206C475
:1051E0007401120AFD850A82850B8312529D900379
:1051F00065E8F0A3E9F07A497B911205FE806A9098
:1052000005DBE4F0850882850983E0900599F08547
:105210000882850983125286120AD47808120D6F0B
:105220008A828B83E0FCA3E0FD7A9B7B051204DE7F
:105230007402120AFD7508017808120D73790A903C
:105240000599E0FC7D007AE07B901206C47401129F
:105250000AFD900599E0600979027A097B911206AE
:10526000BE900599E090059AF07F08020C2E120777
:10527000E47402F91206BE22900599E0F50A750B56
:10528000007403780A22E0F50875090074037808B1
:1052900022AA08AB091207E4EAFCEBFD22E0F8338E
:1052A00095E0F9E82464F8E93400F92274F7120B68
:1052B0005C74EF120AE7851882851983AC82AD838E
:1052C0007583907582767411120A3B9005DC7430F8
:1052D000F0A37478F078DE7905EA2406FAEB34005E
:1052E000FB7E06EA24FF1AEB34FFFB8A828B83E005
:1052F000C4125312A882A9838A828B83E0125312AC
:1053000008A9831EEE70DCE4F07ADC7B05741102E0
:105310004F11540FFC851882851983E5822CF58284
:10532000E5833400F583E088828983F0A322C0827C
:10533000C083909186120A16900360120A220254CA
:105340005774EE120B5C89088A0A8B0B7412120BCD
:1053500050780C1209F81205928A108B11AE10AF1A
:1053600011EE4F600E8E828F83A3A3780C120A0772
:105370000253FD7A0D7B0012055C8A108B11AE1072
:10538000AF11EE4F60738E828F83A3A3A3A3A3A359
:10539000A3A3E508F08E828F83A3A3A3A3A3A3E511
:1053A0000AF0A3E50BF08E828F83A3A3780C120A78
:1053B000078E828F83E4F0A3F0909186120A168EF6
:1053C000828F83A3A3A3A3A3A3A3A3A3120A22123E
:1053D000571490035E6017E0FAA3E08003E8FAE94F
:1053E000FB8A828B8312571770F38A828B83EEF0CD
:1053F000A3EFF0EEFAEFFB80047A007B007F0A0255
:105400000C2EC082C08390035E80048C828D83E06A
:10541000FCA3E0FDEC4D60238C828D83A3A3A3A3AA
:10542000A3A3E06A7003A3E06B70E08C828D83A37A
:10543000A3A3A3A3A3A3A3E06970D0ECFAEDFB8020
:1054400016C082C083EA4B600E8A828B83A3A3A31B
:10545000A3A3A3E4F0A3F0D083D08202013574F4B7
:10546000120B5C740C120B5078081209F8E5A8FFB7
:10547000C2AF7808120D6B12058C7404120AFD8BF2
:1054800009A909EFA2E792AFEA4960047900800216
:1054900079087F04020C2E74F2120B5C740E120B4E
:1054A0005078081209F8A2AFE433FFC2AF780812AF
:1054B0000D6B12058C7404120AFDEA4B60128A828D
:1054C0008B83A3A3A3A3A3A3A3A3A37808120A0770
:1054D000EFA2E092AFEA4B60047900800279087F86
:1054E00006020C2E74F4120B5CA2AFE433F509C271
:1054F000AF1205928A0A8B0BAE0AAF0BEE4F600318
:10550000120598E509A2E092AFEE4F6004790080A1
:1055100002790602549274E8120B5C74FB120AE7DB
:105520008A088B098C0A8D0B7401120B50780812B3
:105530000A07E5A8F9C2AF90036078081209AAE942
:10554000A2E792AF125714700302570A90035EE06D
:10555000FEA3E0FF751200751300750800750900C1
:10556000A2AFE433851882851983F0C2AFEE24021E
:10557000F510EF3400F511EE2402F50AEF3400F5D2
:105580000B7403120B5012571770207402120B5039
:10559000E070187401120B50E0F8850A82850B83C5
:1055A000E0C3984006E0C398F080457401120B50A8
:1055B000C082C083851082851183780C1209F8D0CF
:1055C00083D082780C12082D50177401120B50787A
:1055D0000C1209F8851082851183780C1209D1808C
:1055E0000F909186120A16851082851183120A2265
:1055F000EE2404F516EF3400F517850A82850B8337
:1056000012571770578516828517831257177057D0
:10561000EE2409F514EF3400F515851482F583782E
:105620000C1209F8E50C450D450E450F60538E82AE
:105630008F8312577FEA4B60488E828F83A3A3A388
:10564000A3A3A3A3A3E0F9120526851482851583DD
:10565000120A16851082851183120A22850A828514
:105660000B83125717700B851682851783125717F5
:10567000600F8E828F83A3A3A3A3A3A312571770D7
:10568000258E828F83E0F8A3E0F9E51245137005BB
:1056900090035E8006851282851383E8F0A3E9F00B
:1056A0008E088F0980048E128F138E828F83E0FE06
:1056B000A3E0FF851882851983E0A2E092AFE50898
:1056C0004509603F850882850983A3A31257177097
:1056D0002B850882850983A3A3A3A3125717701CE7
:1056E00085088285098312577F850882850983A3EF
:1056F000A3A3A3A3A3A3A3E0F9120526AA08AB09B9
:10570000120562EE4F600302555A7405120AFD7FBE
:1057100010020C2E90035EE0F8A3E0F9E849227431
:10572000F0120B5C125714604190035E1257859083
:10573000918278081209F88A828B83A3A3780C12CD
:1057400009F87808790C12081D500C850C08850D95
:1057500009850E0A850F0B8A828B83E0F8A3E0F996
:10576000E8FAE9FBEA4B600A80CD9091867808124E
:1057700009F8AA08AB09AC0AAD0B7F08020C2EA3EE
:10578000A3A3A3A3A3E0FAA3E0FB22C082C083905B
:105790000360120A1602545774F6120B5C74FF125F
:1057A0000AE753F1FE43F30C75868075C48053FFFE
:1057B0003F85FFFF43AB10438C01D28543FD20752D
:1057C000D6889003827470F0A374C1F0900386E0D1
:1057D000541FF090038874CEF0A3E0540F4410F0EF
:1057E0007403900384F0A374C6F09003877480F070
:1057F000900386E4F09003897412F09070C1E08504
:105800001882851983F053D1F775D608750800758D
:1058100009017808120D6FE5C2F4FC7D007AC67BA1
:10582000031207EA7402120AFD7401120AFD7F02D4
:10583000020C2E74F7120B5C900549E0FF8F82A8D2
:1058400082900548E0FEEFC39EE05018C398F8959B
:10585000E0F9E824FF18E934FFF9E849701B780003
:1058600079008029C398F895E0F9E8247FF8E934B5
:1058700000F9C3E89CE99D50E57A007B00804DE08B
:1058800004F0439A04E8240108E93400F9C3E89CD1
:10589000E99D50348A828B83E0C0E0900549E0FEA8
:1058A00074C82EF58274043400F583D0E0F08A8247
:1058B0008B83A3AA82AB8390054AE4F0900549E06C
:1058C000C3947F40BAE480B9ECFAEDFB7F01020C8F
:1058D0002E74F6120B5C7E0053ABEF9003C4E070A5
:1058E0000AA284500612072AE96036A284500C905E
:1058F0000548E0F8A3E0686002D2859003C4E4F0B4
:105900009003C5E0700C7A027B00900392E0F912DC
:105910000526E5959003C5F0700374FFF0C28580FD
:10592000139003C5E0600DE4F07A01FB900392E070
:10593000F912052643AB109004C61259C460299091
:10594000054D1259C47017125B824002E4F0E0FA70
:10595000125A6270F2EA90054DF09004C7F090057B
:105960004D125B854002E4F01207248A088B09A8D7
:1059700008A909E84960167E04C3E89470E9940018
:10598000500AC3E8947FE9940040020E0E90054A45
:10599000E06006E4F0EED2E4FEEE6017A3E0F8A3C8
:1059A000E0F988828983E58245836007EEFA790011
:1059B000120B5A9003C5E0700812072AE97002D250
:1059C0008502582EE0125A662274F5120B5C900480
:1059D000C7E0FA9004C6E0FB125A61700D0AEAC3F0
:1059E000948040027A00EB6A70EEEA9004C7F08A75
:1059F000828B08C39508FE95E0FFEE4F7049E58263
:105A0000125A6270538B0A74FF250AFA0470027AE4
:105A10007F125A61702B7508007509017808120D04
:105A20006FE5C2F4FC7D007AC67B031207EA7402BC
:105A3000120AFD9004C6E090054DF09004C7F08076
:105A4000177E017F008011C3EE9481EF940040081F
:105A5000EE2480FEEF3400FFEEFAEFFB7F03020C32
:105A60002EEA125A6622C333F8E433F974C628F5D5
:105A700082740339F583A3E065C22274F6120B5CCD
:105A8000E586540570141207248B09EA4509700A4B
:105A9000900548E0F8A3E06860047901800279008D
:105AA00002582EC082C083120712D083D082020116
:105AB00035C082C083E97060EA241BF582EB3400B4
:105AC000F583E0F8A3E0F990054BE8F0A3E9F08A4C
:105AD000828B83A3E0F8740368600A74046860052D
:105AE00075C23B800375C2D8E0601314600B14606C
:105AF0000314700F75C50A800D75C509800875C53A
:105B000008800375C50B75C44243F3107586C075D4
:105B10008900C2C5D2BDD2E97900808E74F4120B1F
:105B20005C8908EAF8EBF9E5087A007B00704E80A2
